:1000000040190020C145000005120000BD45000058
:10001000BD450000BD450000BD45000000000000DA
:10002000000000000000000000000000BD450000CE
:10003000BD45000000000000BD450000BD450000BA
:10004000BD4500003117000045170000591700009A
:100050006D1700008117000095170000A917000018
:10006000BD170000D1170000E5170000F9170000C8
:100070000D18000021180000351800004918000074
:100080005D180000BD450000C5250000BD4500000D
:10009000BD450000BD450000BD450000BD45000058
:1000A000BD4500003113000049130000611300003A
:1000B0007913000091130000A9130000C113000080
:1000C000D9130000F11300000914000021140000EE
:1000D00039140000BD450000BD450000BD450000CD
:1000E000BD450000BD450000BD450000BD45000008
:1000F000BD450000191200002D1200004112000041
:1001000055120000691200007D12000091120000DB
:10011000A5120000BD450000BD450000BD45000022
:10012000BD450000BD450000BD450000BD450000C7
:10013000BD450000BD450000BD450000BD450000B7
:10014000BD450000BD450000BD450000BD450000A7
:10015000BD450000BD450000BD450000BD45000097
:10016000BD450000BD450000BD450000BD45000087
:10017000BD450000BD450000BD45000099160000CA
:1001800008B50548054B191A062900D808BD044AC8
:10019000002AFBD09047F9E7C0490000C34900009E
:1001A0000000000008B50748074B191A8A1002EB37
:1001B000D273591000D108BD044A002AFBD09047E1
:1001C000F9E700BFC0490000C0490000000000007E
:1001D00010B5064C237843B9FFF7D2FF044810B19D
:1001E0000448AFF300800121217010BD20050020DC
:1001F00000000000C049000008B5084B1BB10848CA
:100200000849AFF300800848016811B1074A02B1FC
:100210009047BDE80840FFF7C5BF00BF00000000E1
:10022000C049000024050020C04900000000000073
:1002300040F2D453C2F200031A7802F1FF30C1B287
:10024000197070474FF00000704700BF4FF000007A
:10025000704700BF40F6D803C2F20003187810F0D0
:10026000800F20D000F06001202947D140F6D8024D
:10027000C2F200025378212B43D140F6D800C2F2DB
:100280000000C18807293FD140F6D803C2F200031D
:1002900040F23C52C2F200029A604FF0070098818F
:1002A0004FF00100704700F0600120292FD140F687
:1002B000D802C2F200025078202804D0222814BFAD
:1002C00000200120704740F6D803C2F20003D8880E
:1002D00007281FD140F6D801C2F2000140F21D32BA
:1002E000C0F200020A6140F23C53C2F200038B608C
:1002F0004FF0070088814FF0010070474FF0000079
:1003000070474FF0000070474FF0000070474FF00B
:10031000000070474FF00000704700BF704700BFFB
:1003200030B583B040F2E853C2F2000318780028D9
:1003300040F0DE8042F29D11C0F20001884760B1BA
:1003400040F2DC54C2F20004248842F2F110C0F200
:100350000000804784420DD1CAE040F2DC52C2F274
:100360000002148842F2E113C0F20003984784426D
:1003700000F0BE80EFF31085D5F1010538BF0025F0
:1003800072B6BFF35F8F40F2D401C2F200014FF0AA
:1003900000020A7040F24853C2F200031C7840F297
:1003A0004C50C2F2000030F8141079BB40F2E05318
:1003B000C2F200031A8802F101021A8042F29D1073
:1003C000C0F20000804730B940F2E051C2F20001B3
:1003D0000B88632B0DD942F29D12C0F200029047A8
:1003E000A0B140F2E050C2F200000188B1F5487FB0
:1003F0000CD2002D7CD040F2D403C2F200034FF0A7
:1004000001021A70BFF35F8F62B671E040F2E053F1
:10041000C2F200034FF000021A8040F27C60C2F288
:100420000000017849B9944214BF0022012240F231
:100430004853C2F200031A7003E0D4F1010438BF3C
:10044000002440F2E850C2F200004FF001020270B6
:100450003DB140F2D405C2F200052A70BFF35F8FB0
:1004600062B6254640F24C51C2F2000131F8144008
:10047000403C18BF0124DCB142F29D12C0F20002E0
:10048000904750B142F2F110C0F20000804740F2B4
:10049000DC52C2F20002108011E042F2E111C0F21F
:1004A0000001884740F2DC53C2F20003188006E0E6
:1004B00040F2DC53C2F200034FF00000188040F21B
:1004C0004C51C2F2000131F8153040F20950C0F22F
:1004D000000000904FF08100214640F25054C2F2DB
:1004E000000404EB851242F27134C0F20004A0470C
:1004F00003B030BD08B54FF0000040F22133C0F228
:100500000003984708BD00BF08B5E8B940F248535A
:10051000C2F200031978D1F1010138BF002140F285
:100520004C53C2F2000323F8110040F27C61C2F286
:100530000001087040F2E852C2F20002107040F26E
:100540002133C0F20003984708BD00BF08B540F250
:100550004553C2F200031A7802F1FF30C1B219709C
:10056000187844F29973C0F20003984740F244505F
:10057000C2F200004FF00002027008BD08B54FF053
:10058000000040F2D453C2F20003187040F28061C0
:10059000C2F20001088040F2EC53C2F200034FF0B7
:1005A000A10119704FF020015970588098804FF0C8
:1005B0000201D980188140F23C53C2F200034FF48B
:1005C000E1311960187158714FF008029A7144F2C4
:1005D0009973C0F20003984758B140F2D450C2F268
:1005E0000000017801F10101CAB202704FF0010070
:1005F00008BD4FF0000008BDEFF3108372B6BFF3E3
:100600005F8F40F2D402C2F200024FF0000111707D
:1006100040F2D850C2F20000028890B240F2E45199
:10062000C2F20001097840F2D052C2F2000232F860
:100630001110081A4BB940F2D403C2F200034FF074
:1006400001021A70BFF35F8F62B6704708B540F2BF
:10065000F953C0F200039847003018BF012008BDCD
:1006600010B582B0EFF31083D3F1010038BF002042
:1006700072B6BFF35F8F40F2D402C2F200024FF0B5
:100680000001117040F2E454C2F20004247840F2F8
:100690007863C2F200031A786AB940F2D851C2F204
:1006A00000010B889AB240F2D051C2F2000131F839
:1006B000143093420ED9002852D040F2D401C2F235
:1006C00000014FF001020A70BFF35F8F62B64FF076
:1006D000000047E040F2D852C2F200024FF00001A1
:1006E00011808C4214BF0021012140F2E453C2F278
:1006F0000003197040F27862C2F200024FF001016B
:10070000117038B140F2D400C2F200000170BFF3A2
:100710005F8F62B64FF0000040F24D62C0F20002FF
:10072000904730B14FF0000044F2C571C0F20001B3
:10073000884740F26970C0F2000000904FF002005C
:100740004FF0010140F2F853C2F2000303EB8412B0
:100750004FF0400342F27134C0F20004A04701E0C0
:100760004FF0000002B010BD10B582B088BB40F25F
:10077000E453C2F200031878D0F1010338BF00231C
:10078000A9B940F26974C0F20004009410464FF019
:10079000010140F2F852C2F2000202EB83124FF064
:1007A000400342F27134C0F20004A04711E040F26D
:1007B000D052C2F2000222F813104FF0000040F2B3
:1007C0007861C2F20001087040F26163C0F2000378
:1007D000984702B010BD00BF38B54FF0000440F29A
:1007E0004553C2F200031C7040F2E850C2F2000010
:1007F000047040F27C61C2F200010C7040F2485279
:10080000C2F20002147040F24C53C2F200032546BB
:100810001C805C8040F2DC50C2F200000480204664
:1008200040F22131C0F20001884740F27862C2F202
:100830000002147040F2E453C2F200031C7040F254
:10084000D050C2F20000048040F2D851C2F2000140
:100850000C80204640F26162C0F20002904798B1DD
:1008600040F24553C2F20003187800F10100C1B212
:1008700019701A78012A0AD14FF0010040F244534E
:10088000C2F20003187038BD4FF0000038BD4FF0C1
:10089000010038BD08B54FF0000040F24D63C0F2D2
:1008A0000003984708BD00BF2DE9F04F83B040F228
:1008B0003C53C2F2000393F806B0BBF1090F14BF1A
:1008C0004FF0000B4FF0010B4FF0000A40F2D40440
:1008D000C2F20004D146D04640F2D855C2F200051B
:1008E00040F2E457C2F2000740F2D056C2F20006CE
:1008F00040F2F850C2F200000190EFF3108172B69E
:10090000BFF35F8F84F800802A8893B2387829B9C2
:100910004FF001012170BFF35F8F62B636F81020EF
:100920009A4209D840F24450C2F200000278002AEC
:10093000E3D14FF0000A16E003EB801001990A5C46
:100940004AEA020A03F101039BB22B80484640F2B7
:100950006161C0F200018847BBF1000F03D04FEA8C
:100960000A2ACB46C9E7504603B0BDE8F08F00BF66
:1009700008B54FF0000040F6A903C0F20003984705
:1009800008BD00BF40F28463C2F20003186801682A
:100990004A888818704700BF38B505460C4640F6AF
:1009A0008513C0F20003984702462878281882422F
:1009B00011D94178042911D0A14205D138BD41781F
:1009C00004290ED0A1420ED00378C0188242F6D876
:1009D0004FF0000038BD4FF0000038BD4FF0000070
:1009E00038BD4FF0000038BD70B505460E4640F2E8
:1009F0008E63C2F200031878002831D040F284617F
:100A0000C2F200010A6814682379AB422BD940F284
:100A10009060C2F20000046040F68511C0F200014F
:100A20008847844222D26278042A0DD1A378AB424F
:100A30000AD1E178B14207D140F29063C2F20003DB
:100A40001C604FF0010070BD2278A418A042EAD8C3
:100A500040F29060C2F2000004604FF0000070BDF0
:100A60004FF0000070BD4FF0000070BD4FF000006F
:100A700070BD00BF08B540F6D803C2F20003588825
:100A800000F07F0042F2A511C0F20001884708BDC6
:100A90002DE9F041804640F6E913C0F20003984783
:100AA00038B340F29060C2F2000004684FF00506CF
:100AB00040F69915C0F2000542F20927C0F200077E
:100AC00020463146A847044638B18078E178A288AC
:100AD000B8470028F4D1BDE8F08140F28461C2F249
:100AE00000010A68536853F8280001688847BDE888
:100AF000F0814FF00000BDE8F08100BF2DE9F0412A
:100B000004464FF0000140F6E913C0F20003984795
:100B1000002830D040F28460C2F2000001684A68C8
:100B200052F82480D8F80C3098470146204640F609
:100B3000E912C0F20002904708B340F29064C2F29A
:100B4000000424684FF0050640F69915C0F2000530
:100B500042F29957C0F2000720463146A8470446A2
:100B600010B18078B847F7E7D8F8040080474FF015
:100B70000100BDE8F0814FF00000BDE8F0814FF0CA
:100B80000000BDE8F08100BF08B542F24903C0F2A1
:100B90000003984708BD00BF70B540F28E63C2F2F3
:100BA00000031878D8B140F28461C2F200010A68EB
:100BB0001368187998B14FF0000440F6FD26C0F292
:100BC000000640F28465C2F200052046B04704F1F9
:100BD0000104E4B229680A681379A342F5D840F207
:100BE0008E60C2F200004FF00001017040F28C6391
:100BF000C2F200034FF001021A8070BD38B540F216
:100C00008E63C2F200031878D8B140F28461C2F258
:100C100000010B681A68107998B14FF0000440F297
:100C20008465C2F200055B6853F824100A6902B1BA
:100C3000904704F10104E4B22B6818680179A142DD
:100C4000F1D838BDF8B540F6D803C2F200034FF032
:100C500000029A811A615A61187810F0800F00F032
:100C6000BA8240F6D802C2F20002D288002A40F0CE
:100C7000B782A4E210F01F0040F0868040F6D80151
:100C8000C2F200014B78062B16D0082B69D0002B3E
:100C90007AD1022A0DD140F28C60C2F200004FF0EE
:100CA000020142F2F913C0F2000398474FF001002D
:100CB0000AE24FF0000007E240F6D800C2F200005E
:100CC00041884FEA1123022B10D0032B25D0012B92
:100CD0003BD140F26002C2F2000211680846097876
:100CE00042F2F913C0F2000398471EE0C8B240F286
:100CF0006001C2F200010B685A7C824228D9A649E1
:100D00004B6853F8302010465188A44B9847A448AC
:100D100081684FF002024A7007E011F0FF0F1AD10C
:100D2000A0484FF004019D4A904740F6D803C2F214
:100D30000003D8889989814210D940F6D802C2F2BE
:100D4000000290814FF00100BEE14FF00000BBE1D6
:100D50004FF00000B8E14FF00000B5E14FF00100A6
:100D6000B2E1012A0DD140F28E60C2F200004FF0D4
:100D7000010142F2F912C0F2000290474FF0010067
:100D8000A2E14FF000009FE1012834D140F6D801E4
:100D9000C2F200014B780A2B2DD1012A1FD18248C3
:100DA0000378FBB17E4C2479804D2D6829680A793F
:100DB000A2421AD920464FF000017D4B9847B8B1A6
:100DC000686850F82410CA6890477A4B1870184623
:100DD0004FF00101714A90474FF0010074E14FF06C
:100DE000000071E14FF000006EE14FF000006BE198
:100DF0004FF0000068E1022840F0688140F6D8001A
:100E0000C2F200004178002940F05681022A0DD13B
:100E1000634A1079684B98476849088008464FF044
:100E200002015E4A90474FF001004DE14FF0000093
:100E30004AE110F01F0340F0C38040F6D801C2F22F
:100E400000014A7802F1FF30082800F2B980DFE89B
:100E500010F01E00B7003601B7000900B700B70058
:100E6000B7003C0040F6D800C2F20000C18859B972
:100E700040F6D803C2F2000340F67522C0F2000229
:100E80001A614FF001001FE14FF000001CE140F635
:100E9000D800C2F20000C18889B940F6D803C2F276
:100EA00000035A88012A0DD140F28C60C2F2000082
:100EB000018821F0020303804FF0010004E14FF0AC
:100EC000000001E14FF00000FEE040F6D802C2F25F
:100ED0000002D08800284CD142F2D111C0F20001AA
:100EE0008847002848D040F6D803C2F200039A7819
:100EF00040F26000C2F2000001684B7C9A423EDC86
:100F000040F69932C0F20002904740F6D800C2F293
:100F10000000817840F28E63C2F20003197089B339
:100F200001F1FF3340F26002C2F20002526802EBAC
:100F3000C30040F28461C2F20001086052F833300D
:100F40001A7912B34FF00004264640F69125C0F2FC
:100F500000050F4620463146A847C8B104F10104F8
:100F6000E4B2386801680B79A342F3D84FF001006E
:100F7000AAE04FF00000A7E04FF00000A4E04FF01F
:100F80000000A1E04FF001009EE04FF001009BE067
:100F90004FF0000098E000BF60000020F921000041
:100FA000D8080020D00000208E06002084060020F3
:100FB000E909000088060020B92200008A06002006
:100FC000012B2DD140F6D801C2F200014A780B2A3C
:100FD00026D140F6D800C2F20000C288BAB940F269
:100FE0008E63C2F200031978A1B140F6D805C2F2AF
:100FF00000052C796D88204640F6FD22C0F20002E3
:10100000904750B12046E9B2784B98475CE04FF0EA
:10101000000059E04FF0000056E04FF0000053E0B0
:10102000022B53D140F6D803C2F2000358780128AE
:1010300002D0032846D11CE040F6D803C2F20003D8
:10104000D88880B940F6D801C2F200014A886AB94E
:1010500040F6D803C2F20003187942F2D121C0F25F
:101060000001884730E04FF000002DE04FF0000015
:101070002AE040F6D801C2F20001CA88B2B940F6AF
:10108000D803C2F20003588898B940F6D804C2F2D7
:101090000004207942F2C541C0F20001884720795E
:1010A00042F26952C0F2000290470DE04FF000009A
:1010B0000AE04FF0000007E04FF0000004E04FF0BE
:1010C000000001E04FF0000000287BD140F6D8037B
:1010D000C2F20003187800F01F0101292DD140F25F
:1010E0008E62C2F2000213783BB340F6D804C2F21B
:1010F0000004247940F28465C2F200052D68286856
:101100000179A14219D920464FF0000140F6E912B9
:10111000C0F20002904780B16B6853F82450E86831
:1011200080470146204640F6E912C0F2000290478F
:1011300018B1A9688847002847D140F6D803C2F201
:101140000003187800F01F02022A41D140F28E619C
:10115000C2F200010B7833B340F28460C2F20000A7
:1011600003681A68117909B34FF0000440F6E916D4
:10117000C0F2000640F28467C2F200075D6855F8CD
:101180002450EB68984701462046B04788B1A868CC
:10119000804788B904F10104E4B23B681A68117908
:1011A000A142EBD8F8BD4FF00000F8BD4FF00000B1
:1011B000F8BD4FF00000F8BD4FF00100F8BD4FF052
:1011C0000000F8BD4FF00100F8BD4FF00100F8BD80
:1011D0004FF00000F8BD10F0600F7FF477AF28E605
:1011E00010F0600F7FF472AF44E500BF910A000079
:1011F00008B540F2B473C2F2000353F8200000B106
:10120000804708BD08B54FF0000041F2F113C0F26D
:101210000003984708BD00BF08B54FF0010041F238
:10122000F113C0F20003984708BD00BF08B54FF0A6
:10123000020041F2F113C0F20003984708BD00BF5D
:1012400008B54FF0030041F2F113C0F200039847D4
:1012500008BD00BF08B54FF0040041F2F113C0F221
:101260000003984708BD00BF08B54FF0050041F2E4
:10127000F113C0F20003984708BD00BF08B54FF056
:10128000060041F2F113C0F20003984708BD00BF09
:1012900008B54FF0070041F2F113C0F20003984780
:1012A00008BD00BF08B54FF0080041F2F113C0F2CD
:1012B0000003984708BD00BF2DE9F04706464FEAF6
:1012C000402303F1804000F56122D2F8D09001EA7A
:1012D0000901C2F8D81040F29463C2F20003186802
:1012E00018B34FF00004254640F29867C2F2000799
:1012F0004FF0010A40F29468C2F20008E259B6EBDE
:10130000521F0AD102F01F010AFA01F313EA090F72
:1013100003D03819426802B1904705F1010504F184
:101320000804D8F80010A942E8D8BDE8F08700BF4B
:1013300008B54FF000004FF0FF0141F2B923C0F2B1
:101340000003984708BD00BF08B54FF000004FF4F8
:101350007F4141F2B923C0F20003984708BD00BFA6
:1013600008B54FF000004FF47F0141F2B923C0F2FD
:101370000003984708BD00BF08B54FF000004FF0CC
:10138000FF4141F2B923C0F20003984708BD00BFF6
:1013900008B54FF001004FF0FF0141F2B923C0F250
:1013A0000003984708BD00BF08B54FF001004FF497
:1013B0007F4141F2B923C0F20003984708BD00BF46
:1013C00008B54FF001004FF47F0141F2B923C0F29C
:1013D0000003984708BD00BF08B54FF001004FF06B
:1013E0007F4141F2B923C0F20003984708BD00BF16
:1013F00008B54FF002004FF0FF0141F2B923C0F2EF
:101400000003984708BD00BF08B54FF002004FF435
:101410007F4141F2B923C0F20003984708BD00BFE5
:1014200008B54FF002004FF47F0141F2B923C0F23A
:101430000003984708BD00BF08B54FF002004FF009
:101440007F4141F2B923C0F20003984708BD00BFB5
:1014500008B54FF00000C4F2080043F25103C0F297
:10146000000398474FF48060C4F20F00416911F007
:10147000010F0CD142F65152C0F2000290474FF4D6
:101480008060C4F20F00436913F0010FFBD008BD68
:10149000EFF3108272B6BFF35F8F40F2D403C2F253
:1014A00000034FF00001197040F2AC70C2F200006E
:1014B000837903F1010383714AB940F2D401C2F286
:1014C00000014FF001020A70BFF35F8F62B64FF068
:1014D0000000C4F20800436823F0040141604FF0AB
:1014E000020202604FF4807303604FF00000C4F208
:1014F0000800C16811F0100FFBD070474FF00003D7
:10150000C4F20803596821F47C1300F01F0200287C
:10151000ACBF52B242F0200243EA02404FF0000159
:10152000C4F208014860704710B54FF00003C4F2E0
:1015300008034FF055021A60C1794FEA014404F4E0
:10154000F811027A4FEA026404F0F85241EA020408
:1015500081794FEA012202F4F8510C4342794FEAB3
:10156000420101F00E02144301790C439C600378A0
:101570004FEA036404F07C5441788278002A0CBF5F
:1015800002230023C2784FEA022202F4407222436F
:101590000A431A434FF00001C4F208014A6090F96F
:1015A000090041F2FD43C0F20003984710BD00BF9F
:1015B00078B94FF00000C4F208004FF00802026052
:1015C0004FF00001C4F20801CB6813F0020FFBD00A
:1015D000704701280FD14FF00000C4F208004FF00F
:1015E000200202604FF00001C4F20801CB6813F042
:1015F000040FFBD0704702280ED14FF00000C4F258
:1016000008004FF0800202604FF00001C4F20801B0
:10161000CB6813F0080FFBD0704700BF10B44FEA3F
:10162000012101F47C544FEA400000F006010C4314
:101630009DF80400002818BF44F001044FF0000199
:10164000C4F208010C6403F1FF349BB113788BB131
:101650004FF000010846C4F2080014F0010F06D054
:101660000AE012F8013F01F101016BB902E04364A5
:10167000A142F6D110BC7047436412F8013F01F15A
:101680000101002BF3D1F5E7436412F8013F01F1AA
:101690000101002BEBD1EDE708B54FF00003C4F2D8
:1016A00008034FF001021A6140F2C860C2F2000064
:1016B000016801B1884708BD0F2888BF00204FEAA4
:1016C000801000F1804101F52220704708B541F2F9
:1016D000B963C0F200039847C169C06A11F0010FF5
:1016E0000CD010F0040F0CD110F0020F0CD100F050
:1016F0000102002A0CBF0120022008BD4FF00000AB
:1017000008BD4FF0040008BD4FF0030008BD00BF46
:1017100010B5044641F2CD63C0F20003984740F291
:10172000D871C2F2000151F8242002B1904710BDD7
:1017300008B54FF0000041F21173C0F20003984762
:1017400008BD00BF08B54FF0010041F21173C0F2AF
:101750000003984708BD00BF08B54FF0020041F2F2
:101760001173C0F20003984708BD00BF08B54FF0E1
:10177000030041F21173C0F20003984708BD00BF97
:1017800008B54FF0040041F21173C0F2000398470E
:1017900008BD00BF08B54FF0050041F21173C0F25B
:1017A0000003984708BD00BF08B54FF0060041F29E
:1017B0001173C0F20003984708BD00BF08B54FF091
:1017C000070041F21173C0F20003984708BD00BF43
:1017D00008B54FF0080041F21173C0F200039847BA
:1017E00008BD00BF08B54FF0090041F21173C0F207
:1017F0000003984708BD00BF08B54FF00A0041F24A
:101800001173C0F20003984708BD00BF08B54FF040
:101810000B0041F21173C0F20003984708BD00BFEE
:1018200008B54FF00C0041F21173C0F20003984765
:1018300008BD00BF08B54FF00D0041F21173C0F2B2
:101840000003984708BD00BF08B54FF00E0041F2F5
:101850001173C0F20003984708BD00BF08B54FF0F0
:101860000F0041F21173C0F20003984708BD00BF9A
:101870000346002849D140F2A072C2F2000211785A
:1018800000293CD0EFF3108172B6BFF35F8F40F2B6
:10189000D402C2F20002107040F2AC72C2F2000236
:1018A000107800F1FF30107049BB40F2D402C2F250
:1018B00000024FF001011170BFF35F8F62B61EE0AE
:1018C000EFF3108172B6BFF35F8F40F2D402C2F221
:1018D00000024FF00000107040F2AC72C2F2000241
:1018E000107800F10100107049B940F2D402C2F240
:1018F00000024FF001011170BFF35F8F62B640F23A
:10190000A070C2F200000370704740F2A072C2F2F1
:10191000000210780028D3D0F1E700BF45F2202361
:10192000C4F20A034FF001021A6045F26010C4F2DB
:101930000A004FF00201016040F6D802C2F2000234
:101940004FF0000313615361938140F2A471C2F21E
:1019500000010B70704700BF40F2A473C2F2000395
:101960004FF005021A7045F2F010C4F20A004FF46D
:1019700000210160704700BF40F2A473C2F200036F
:101980004FF003021A7040F22070C2F2000041686A
:101990006FF30E014160EFF3108072B6BFF35F8FFB
:1019A00040F2D403C2F200034FF000021A7045F275
:1019B0006012C4F20A024FF00101116045F2F01307
:1019C000C4F20A0319604FF008011160196048B9A8
:1019D00040F2D400C2F200004FF001020270BFF3E7
:1019E0005F8F62B6704700BF08B540F6D803C2F2F9
:1019F0000003186900B1804708BD00BF2DE9F04F12
:101A000083B0064600F00F034FEA830B4FF4A24267
:101A1000C4F20A0252F823A003F1FF3505EB85005A
:101A200040F2D064C2F2000404EB8004EFF31081B2
:101A300072B6BFF35F8F40F2D407C2F200074FF0D7
:101A400000023A704FF4805707FA03F74FF4A040B2
:101A5000C4F20A00476149B940F2D402C2F200025E
:101A60004FF001011170BFF35F8F62B6207C10F060
:101A7000010F00F09081CAF3021A4FF0080202FA37
:101A80000AFA16F0800F00F0AD804FEA430040F2F2
:101A90002075C2F2000505EB43114A68C2F30E41FE
:101AA00045F2F012C4F20A0293444FF0807542F8F6
:101AB000235045F26012C4F20A024FF0010542F8C9
:101AC000235099B945F23012C4F20A0252F8235059
:101AD00015F4405F0AD140F22071C2F2000101EB1F
:101AE000001255684FEA45414FEA5141E2688A18B1
:101AF000E260A1688A4206D1257C05F00205EDB2BC
:101B0000002D00F03D818E1AB1B211F4004F17D0B4
:101B10001FFA8AFA47F6FF7292FBFAF10AFB1125C7
:101B2000C5F5FF4606F17F06B1B240F22072C2F25F
:101B3000000202EB001675686FF3DF7575600FE049
:101B4000227CC2F3400C40F22075C2F2000505EB86
:101B500000156E686CF3DF766E606FF341022274DD
:101B600040F22075C2F200054FEA00102A185668AC
:101B700061F30E06566051686FF31E415160616853
:101B8000E2688918295045F22020C4F20A004FF477
:101B9000804240F823204FF0807140F82310EFF38B
:101BA000108072B6BFF35F8F40F2D403C2F200031D
:101BB0004FF000021A704FF00101CBF800104FF403
:101BC000A043C4F20A039F61002840F0E48040F281
:101BD000D400C2F200004FF001020270BFF35F8F29
:101BE00062B6D8E04FEA430940F22071C2F2000128
:101BF00001EB431042684FEA42484FEA584845F229
:101C0000F010C4F20A000BEB000101914FF080725A
:101C100040F8232045F26010C4F20A004FF00201A0
:101C200040F8231045F22022C4F20A0293444FF4F4
:101C3000804042F82300237C03F00401CAB2AAB119
:101C40006068E1681FFA8AF3D4F808E0BEFBF3F29B
:101C5000401840F61801C2F2000101EB851103FBA8
:101C600012E244F64913C0F200039847E06808EB1B
:101C70000001E160A268914288BFE26040F22073F7
:101C8000C2F2000303EB09104168C1F30E4398450B
:101C900076D1E3689A4273D01FFA8AF1D61AB2B2AB
:101CA00012F4004F0CD08A4647F6FF7696FBF1F00F
:101CB00001FB1062C2F5FF4606F17F06B2B205E0F5
:101CC000B2FBF1F001FB1026921B92B240F22070A1
:101CD000C2F2000000EB091046686FF30E06466082
:101CE0008A4218D2227C42F00400207440F6180385
:101CF000C2F2000303EB851540F22072C2F200022B
:101D00004FEA091902EB090042F80950436861F3F0
:101D10001E4343600FE06168CB1840F22070C2F2AE
:101D200000004FEA091900EB090140F809304B683F
:101D300062F31E434B604FF08071CBF80010EFF35D
:101D4000108272B6BFF35F8F40F2D400C2F200007F
:101D50004FF0000303704FF00200019908604FF448
:101D6000A043C4F20A039F61AAB940F2D400C2F2B0
:101D700000004FF001020270BFF35F8F62B60AE00D
:101D8000237C6FF300032374236823B14FF000001A
:101D9000E1683246984703B0BDE8F08FF8B5EFF33D
:101DA000108272B6BFF35F8F40F2D403C2F2000319
:101DB0004FF00001197045F22020C4F20A004FF0E4
:101DC000010101603AB940F2D403C2F20003197074
:101DD000BFF35F8F62B640F2A470C2F200000178D8
:101DE00003290AD141F6E912C0F20002904741F6F8
:101DF0001D13C0F200039847F8BD40F2A274C2F26E
:101E00000004238840F6D802C2F200029089C11A69
:101E10008CB2002C55D140F2CC62C2F20002108884
:101E20001B1899B2118040F6D802C2F20002D08885
:101E3000884205D040F2CE63C2F20003197861B344
:101E400040F2A473C2F200034FF004021A70EFF3E1
:101E5000108072B6BFF35F8F40F2D401C2F200016E
:101E60004FF000030B7045F26011C4F20A014FF00D
:101E700010020A6045F2F013C4F20A031A60002847
:101E800040F0918040F2D400C2F200004FF0010116
:101E90000170BFF35F8F62B6F8BD40F6D805C2F29D
:101EA00000056A69CAB19047B8B140F2A274C2F2A3
:101EB00000044FF00000208040F6D803C2F2000377
:101EC0009C893F2C09D940F2CE61C2F200014FF04B
:101ED00000050D704FF0400406E040F2CE60C2F203
:101EE00000004FF001020270EFF31083D3F10105FF
:101EF00038BF002572B6BFF35F8F40F2D401C2F243
:101F000000014FF00000087045F23012C4F20A02DE
:101F1000136813F0020F12D04DB140F2D403C2F295
:101F200000034FF001021A70BFF35F8F62B640F2F8
:101F3000A470C2F200004FF004010170F8BD40F23D
:101F4000A276C2F20006378840F6D801C2F200013C
:101F50008A6840F6F000C2F20000D119224644F629
:101F60004913C0F200039847E719378040F2207008
:101F7000C2F20000416864F30E01416045F2601353
:101F8000C4F20A034FF001021A6045F2F010C4F2E5
:101F90000A0002603DB140F2D401C2F200010A70B1
:101FA000BFF35F8F62B6F8BD38B5EFF3108472B639
:101FB000BFF35F8F40F2D403C2F200034FF0000280
:101FC0001A704FF0010041F67101C0F2000188471C
:101FD0004FF4A040C4F20A00D0F8005825F4804322
:101FE000C0F800384FF4A042C4F20A02D2F8041834
:101FF00011F4804FFAD04FF4A043C4F20A031868DA
:1020000020F480751D604FF008059D614FF00101BF
:1020100099614FF010029A614FF0040098619D6041
:102020009860D9609A60D3F8002842F48040C3F8E1
:1020300000083CB940F2D403C2F200031970BFF3A8
:102040005F8F62B638BD00BF2DE9F041EFF3108815
:1020500072B6BFF35F8F40F2D406C2F200064FF0B3
:102060000005357043F6CD53C0F2000398474FF496
:102070006140CEF200004FF48022C0F880214FF082
:10208000500180F8121302602C46C4F20E04D4F8FA
:10209000887147F00403C4F888312846C4F20F0061
:1020A00044F2B122C0F2000290474FF4A044C4F2BF
:1020B0000A04D4F8000840F08071C4F80018D4F87D
:1020C000007847F40043C4F80038D4F8002822F41C
:1020D0008040C4F80008D4F8003840F22077C2F2FB
:1020E0000007384629464FF0800244F65B13C0F2E1
:1020F00000039847D4F83038C4F8307840F2D06103
:10210000C2F200010A7C65F300020A7491F824000F
:1021100065F3000081F8240091F8383065F300037E
:1021200081F83830216821F480522260206840F420
:1021300040632360D4F8001841F48042C4F80028BA
:1021400040F2A070C2F200000570EFF3108272B688
:10215000BFF35F8F357040F2AC73C2F20003997821
:1021600001F1010199702AB94FF001023270BFF3F9
:102170005F8F62B641F6A973C0F200039847B8F1C9
:10218000000F09D140F2D401C2F200014FF001006A
:102190000870BFF35F8F62B6BDE8F0814FF00000BA
:1021A000704700BF4FF4A043C4F20A031A6822F03C
:1021B000800119601A6800F07F0022F07F0140EA78
:1021C00001021A60186840F080011960704700BF72
:1021D0004FF4A043C4F20A03186800F07F00704770
:1021E0004FF4A043C4F20A03186AC0F3CA00704750
:1021F0004FF00000704700BF40F6D803C2F2000362
:1022000098609981704700BF70B400F00F034FF4DD
:10221000A044C4F20A04E5694FF0010404FA03F48F
:102220002C4245D14FF4A245C4F20A0505EB8306C2
:1022300055F8235025F4CB5525F014054FEAC1215C
:1022400001F4C05140B20028B4BF4FF480700020A8
:102250000843A2F5806189B2B1F57C4F06D3082A04
:1022600007D94FEA420101F1FF3204E040F2FF7268
:1022700001E04FF00F02B2FA82F2C2F11C0140EA13
:10228000011041F6701202402A43326045F2F0100C
:10229000C4F20A004FF0807140F823104FF4A043BD
:1022A000C4F20A03DA691443DC614FF0010001E073
:1022B0004FF0000070BC704700F00F0045F2C013F3
:1022C000C4F20A0353F82010C1F3C040704700BFA6
:1022D00008B500F00F00032841D845F2C013C4F23E
:1022E0000A0353F8201011F4002F3BD045F22023AD
:1022F000C4F20A034FF4002243F8202045F23011C3
:10230000C4F20A0151F8203013F0400F0FD045F20B
:102310006011C4F20A014FF0400241F8202045F25A
:10232000F013C4F20A034FF4802143F8201040F266
:10233000D062C2F2000200F1FF3000EB80034FEAEE
:1023400083001318197C11F0010F0ED0197C6FF364
:1023500000011974125890474FF0010008BD4FF06A
:10236000000008BD4FF0010008BD4FF0010008BD9E
:10237000F8B500F00F04032C00F298804FF4A0454C
:10238000C4F20A05ED694FF0010606FA04F62E4282
:1023900000F08F8045F2C015C4F20A0555F82450AC
:1023A00015F4002F40F0888004F1FF3606EB860715
:1023B00040F2D065C2F2000505EB8705EFF3108609
:1023C000D6F1010C38BF4FF0000C72B6BFF35F8F2F
:1023D00040F2D406C2F200064FF0000737702E7CA0
:1023E00016F0010F0ED0BCF1000F68D040F2D401FE
:1023F000C2F200014FF001020A70BFF35F8F62B6B4
:102400003846F8BD2E7C46F001062E74BCF1000F54
:1024100009D040F2D406C2F200064FF0010737702F
:10242000BFF35F8F62B66A60AB604FF00006EE608C
:10243000069A2A602A7C61F3410266F382022A74BA
:1024400010F0800F1CD14FF4A242C4F20A0252F8DD
:10245000241001F4C051B1F5006F11D152F82420BD
:10246000C2F302124FF0080101FA02F202F1FF3149
:10247000194205D0287C6FF3000028743046F8BD5F
:1024800040F22073C2F2000303EB441462686FF35E
:102490000E02626061686FF31E41616041F6FD13D8
:1024A000C0F2000398474FF00100F8BD4FF0000064
:1024B000F8BD4FF00000F8BD4FF00000F8BD4FF040
:1024C0000000F8BD38B500F00F02EFF3108072B6CF
:1024D000BFF35F8F40F2D403C2F200034FF000015C
:1024E000197013464FF4805404FA02F44FF4A045D7
:1024F000C4F20A056C6148B940F2D401C2F200018D
:102500004FF001000870BFF35F8F62B64FEA82059B
:1025100045F2F014C4F20A044FF0807144F822101E
:1025200040F2D060C2F2000003F1FF3303EB8304FA
:102530004FEA840143181C7C14F0010F13D01C7C5B
:102540006FF300041C7444586CB14FF4A240C4F201
:102550000A00295811F4807F18BF42F080024FF022
:102560000100D968A04738BD08B500F00F03032B60
:102570000FD845F2F012C4F20A024FF4002142F8DB
:10258000231042F2C543C0F2000398474FF0010008
:1025900008BD4FF0000008BD10B5044642F2C54327
:1025A000C0F2000398474FF4A040C4F20A00C26989
:1025B00004F07F044FF0010101FA04F322EA03045E
:1025C000C46110BD38B54FF4A043C4F20A03586883
:1025D00010F0040F0CD04FF4A040C4F20A004FF0EA
:1025E0000402826040F6FD33C0F20003984721E305
:1025F0004FF4A041C4F20A014A6812F4805F00F06F
:102600001C8345F22023C4F20A034FF01000186027
:102610004FF00801196045F23012C4F20A02136843
:1026200013F0040F00F0B28040F2A473C2F2000372
:10263000197849B141F6E912C0F20002904741F61B
:102640001D10C0F20000804740F22073C2F2000368
:1026500059684FEA41424FEA524008280CD041F6EF
:102660005911C0F20001884745F26013C4F20A0311
:102670004FF004021A60DDE240F6D803C2F2000314
:1026800040F6F001C2F2000103C983E8030040F6FE
:102690004542C0F20002904760B941F65912C0F2BB
:1026A0000002904745F26013C4F20A034FF00400A1
:1026B0001860BFE245F26010C4F20A004FF0040354
:1026C000036040F6D801C2F2000191F90020002A0F
:1026D00018DA4FF0000040F2CC61C2F2000108802D
:1026E00040F2A272C2F20002108040F2A473C2F261
:1026F00000034FF00200187041F69D51C0F2000136
:10270000884797E240F6D800C2F20000C3882BB990
:1027100041F67913C0F2000398478BE24FF00001B5
:10272000084640F2CC62C2F20002118040F2A2736D
:10273000C2F20003198040F2A471C2F200014FF00E
:1027400001020A7045F26013C4F20A034FF010024E
:102750001A60EFF3108172B6BFF35F8F40F2D403BB
:10276000C2F20003187045F2F010C4F20A000260D1
:10277000002940F05F8240F2D401C2F200014FF024
:1027800001020A70BFF35F8F62B653E245F2301068
:10279000C4F20A00016811F0020F00F0D18040F28B
:1027A000A472C2F200021178012914D0022901D0CA
:1027B000042905D141F6E912C0F20002904704E075
:1027C00041F65911C0F20001884741F61D10C0F2D0
:1027D000000080472EE240F22074C2F200046368D9
:1027E0004FEA43404FEA504240F6D801C2F200019E
:1027F0008B8940F2A274C2F200042488A01883429C
:10280000AEBF1546C4EB03039DB240F6D802C2F238
:1028100000029168081940F6F001C2F200012A4650
:1028200044F64913C0F2000398472C19A4B240F2B1
:10283000A270C2F200000480402D0CD140F6D802F4
:10284000C2F20002D18840F2CC63C2F200031888C1
:102850000219914222DC40F6D801C2F200018C81BB
:102860004A6972B1904760B941F65912C0F200024C
:10287000904745F26010C4F20A004FF00203036073
:10288000D8E145F26010C4F20A004FF00203036081
:1028900041F67911C0F200018847CBE140F6D8013A
:1028A000C2F200018B89A34221D1C34842694AB9CF
:1028B000C24A904745F26010C4F20A004FF002038A
:1028C0000360B7E1904748B9BC48804745F26013C0
:1028D000C4F20A034FF002011960ABE1B84AB94BE8
:1028E00018881188401810804FF000021A8045F2B5
:1028F0006013C4F20A034FF0020119604FF0100296
:102900001A60EFF3108172B6BFF35F8F40F2D40309
:10291000C2F200034FF00000187045F2F013C4F249
:102920000A031A60002940F0858140F2D401C2F206
:1029300000014FF001020A70BFF35F8F62B679E1C8
:1029400045F23012C4F20A02136813F0010F0DD0E1
:1029500045F2C010C4F20A00016811F0010F05D061
:1029600041F69D50C0F20000804763E145F230120D
:10297000C4F20A02136813F0080F1FD045F260106A
:10298000C4F20A004FF00802026045F23011C4F2AE
:102990000A010B6813F0010F40F04C8140F2A47063
:1029A000C2F200000278032A40F0448145F2F0119F
:1029B000C4F20A014FF400230B603BE145F23010F2
:1029C000C4F20A00016811F0100F00F0368145F2E0
:1029D0006013C4F20A034FF010021A6045F230107F
:1029E000C4F20A00016811F0020F40F0238140F2A6
:1029F000A473C2F200031A78012A05D141F67913B3
:102A0000C0F20003984715E1042A40F0138145F213
:102A1000F010C4F20A004FF4002101600AE14FF403
:102A2000A043C4F20A035A6812F4004F08D14FF4CD
:102A3000A040C4F20A00416811F0080F19D18BE0E0
:102A40004FF0030004E04FF0010001E04FF00200FE
:102A50004FF4A241C4F20A0151F8203013F4807FF0
:102A600018BF40F0800041F6FD12C0F2000290470E
:102A7000E0E04FF4A044C4F20A044FF00805A5605A
:102A80004FF0010042F2C545C0F20005A8474FF0E3
:102A90000200A8474FF00300A84740F69930C0F263
:102AA00000008047E16921F07F02E261236823F0A2
:102AB0007F002060216841F0800222604FF4A24331
:102AC000C4F20A03186820F4CB5121F0140242F03A
:102AD0003000186040F22073C2F2000340F6F001AB
:102AE000C2F2000119605A686FF31E425A60E06931
:102AF00040F00103E36145F22021C4F20A014FF0E6
:102B000080720A60EFF3108072B6BFF35F8F40F2FD
:102B1000D403C2F200034FF00001197045F2F01225
:102B2000C4F20A024FF0040313604FF00201116077
:102B30004FF48052A26148B940F2D400C2F20000C2
:102B40004FF001030370BFF35F8F62B641F61D11B2
:102B5000C0F2000188476DE04FF4A043C4F20A03BD
:102B60001A6912F0010F2FD04FF4A040C4F20A00EE
:102B7000416811F0010F27D04FF4A043C4F20A03BB
:102B80004FF001009860D3F8001821F48042C3F898
:102B9000002858614FF0100098609861D3F8001831
:102BA00041F48042C3F800284FF0000041F6710361
:102BB000C0F2000398473DE0D808002059190000F2
:102BC000CC060020A20700204FF4A043C4F20A0361
:102BD0001A6912F0100F2DD04FF4A040C4F20A0071
:102BE000416811F0100F25D04FF4A043C4F20A033E
:102BF0004FF010029A60D3F8000820F48041C3F827
:102C000000184FF4A042C4F20A02D2F8043813F4B8
:102C1000804FFAD04FF4A041C4F20A014FF01000E7
:102C200048614FF001008860886141F67102C0F28E
:102C300000029047BFF35F8F38BD4FF4A040C4F24D
:102C40000A00016911F4005F08D04FF4A043C4F2F8
:102C50000A035A6812F4005F7FF4F5AE4FF4A04007
:102C6000C4F20A00016911F4804F08D04FF4A04368
:102C7000C4F20A035A6812F4804F7FF4E7AE4FF4AF
:102C8000A040C4F20A00016911F4004F3FF4CFAE36
:102C9000C5E600BF08B54FF0010440F2D403C2F20C
:102CA00000031C70BFF35F8F62B643F66D60C0F225
:102CB0000000804743F68971C0F20001884740F266
:102CC000AC73C2F200034FF000021A705A709A708F
:102CD000DA701A715A719A71DC7144F2DD64C0F2D3
:102CE0000004A04740F68930C0F20000804744F657
:102CF0008C10C0F2000044F27171C0F200018847EC
:102D0000FEE700BFEFF3108172B6BFF35F8F40F2B2
:102D1000D403C2F200034FF000021A704FF40060B7
:102D2000C4F20E004FF02003CAF60023836140F284
:102D30000722C0F20102026249B940F2D401C2F294
:102D400000014FF001000870BFF35F8F62B670475B
:102D5000EFF3108172B6BFF35F8F40F2D403C2F27B
:102D600000034FF000021A704FF48060C4F20F00AD
:102D70004FF02003CAF6002383614AF20D12C0F21D
:102D80000502026249B940F2D401C2F200014FF0DB
:102D900001000870BFF35F8F62B6704710B4EFF3A5
:102DA000108272B6BFF35F8F40F2D403C2F2000309
:102DB0004FF000041C7001F109034FEA03644FEA6D
:102DC000945343F02A444FF40063C4F20E039C6111
:102DD000006840F0010001F1080103EB8101486047
:102DE0004AB940F2D403C2F200034FF001021A7054
:102DF000BFF35F8F62B610BC704700BF30B4EFF313
:102E0000108472B6BFF35F8F40F2D403C2F20003A6
:102E10004FF000021A704FF02003C4F20E0353F873
:102E200020204FF0010505FA01F1114300F10802DD
:102E30004FEA02654FEA955242F02A454FF00002F0
:102E4000C4F20E02956543F820104CB940F2D4004C
:102E5000C2F200004FF001030370BFF35F8F62B650
:102E600030BC704730B4EFF3108472B6BFF35F8F9D
:102E700040F2D403C2F200034FF000021A704FF088
:102E80002003C4F20E0353F820204FF0010505FA89
:102E900001F122EA010100F108024FEA02654FEA5E
:102EA000955242F02A454FF00002C4F20E02956599
:102EB00043F820104CB940F2D400C2F200004FF0A9
:102EC00001030370BFF35F8F62B630BC704700BF71
:102ED00038B50446EFF3108572B6BFF35F8F40F24A
:102EE000D403C2F200034FF000021A701046C4F27D
:102EF0000E00816A41B94FF001004FF0050142F622
:102F0000FD53C0F2000398474DB940F2D400C2F21D
:102F100000004FF001020270BFF35F8F62B64FF006
:102F20000200214642F6FD53C0F20003984738BD27
:102F300010B501464FF0020042F66563C0F200038F
:102F40009847EFF3108472B6BFF35F8F40F2D4005E
:102F5000C2F200004FF0000202701146C4F20E01EE
:102F60008B6A43B94FF001004FF0050142F66562EC
:102F7000C0F2000290474CB940F2D400C2F2000007
:102F80004FF001010170BFF35F8F62B610BD00BF4B
:102F900038B50446EFF3108572B6BFF35F8F40F289
:102FA000D403C2F200034FF000021A701046C4F2BC
:102FB0000E00C16A41B94FF001004FF0060142F620
:102FC000FD53C0F2000398474DB940F2D400C2F25D
:102FD00000004FF001020270BFF35F8F62B64FF046
:102FE0000300214642F6FD53C0F20003984738BD66
:102FF00010B501464FF0030042F66563C0F20003CE
:103000009847EFF3108472B6BFF35F8F40F2D4009D
:10301000C2F200004FF0000202701146C4F20E012D
:10302000CB6A43B94FF001004FF0060142F66562EA
:10303000C0F2000290474CB940F2D400C2F2000046
:103040004FF001010170BFF35F8F62B610BD00BF8A
:1030500008B54FF40043C4F20703984200F07F82A2
:103060004FF40041C4F20701884200F2BB804FF4E4
:103070000042C4F20202904200F0F2814FF4004399
:10308000C4F20203984251D84FF40041C4F2010146
:10309000884200F0B0814FF40042C4F20102904235
:1030A00020D84FF40043C4F20003984200F071812D
:1030B0004FF40041C4F20001884204D8B0F1402F1F
:1030C00040F034835DE14FF00003C4F20103984205
:1030D00000F067814FF48041C4F20101884240F062
:1030E000258373E14FF44043C4F20103984200F09A
:1030F00092814FF44042C4F20102904207D84FF44B
:103100000441C4F20101884240F010837BE14FF496
:103110004442C4F20102904200F085814FF48041A4
:10312000C4F20201884240F0018384E14FF00002C2
:10313000C4F20402904200F0E2814FF00001C4F2B8
:103140000401884223D84FF00003C4F203039842DD
:1031500000F0B0814FF00002C4F20302904207D8A1
:103160004FF44041C4F20201884240F0DF828CE11A
:103170004FF40042C4F20302904200F0B0814FF4D9
:103180004041C4F20301884240F0D082AFE14FF4E5
:103190000043C4F20603984200F0C9814FF4004195
:1031A000C4F2060188420ED84FF00002C4F20602B3
:1031B000904200F0AC814FF48043C4F20603984281
:1031C00040F0B482ABE14FF44043C4F206039842AE
:1031D00000F0B5814FF00001C4F20701884240F0D1
:1031E000A582B4E14FF00001C4F20E01884200F064
:1031F00032824FF00003C4F20E0398425BD84FF4C2
:103200008052C4F20A02904200F0E2814FF48051F1
:10321000C4F20A01884223D84FF00003C4F2080325
:10322000984200F0AC814FF00002C4F208029042D4
:1032300007D84FF44041C4F20701884240F076823B
:1032400095E14FF00002C4F20A02904200F09F8123
:103250004FF48061C4F20A01884240F06782A6E11F
:103260004FF4A043C4F20A03984200F0DB814FF40C
:10327000A041C4F20A0188420ED84FF40052C4F2B1
:103280000A02904200F0AC814FF48043C4F20A037A
:10329000984240F04B82B4E14FF4C041C4F20A01BD
:1032A000884200F0D0814FF00003C4F20B03984233
:1032B00040F03C825BE04FF00003C4F20F03984201
:1032C00000F0FA814FF00002C4F20F02904223D8BE
:1032D0004FF40061C4F20E01884200F0D0814FF437
:1032E0000063C4F20E03984207D84FF48062C4F220
:1032F0000E02904240F01A82B7E14FF44061C4F2EE
:103300000E01884200F0C5814FF48052C4F20E02D3
:10331000904240F00B82C6E14FF44061C4F20F01CD
:10332000884200F0E7814FF44062C4F20F029042FD
:103330000ED84FF48063C4F20F03984200F0C681A8
:103340004FF40061C4F20F01884240F0EF81C7E101
:103350004FF48051C4F20F01884200F0D5814FF440
:10336000A052C4F20F02904240F0E081D6E14FF04B
:1033700001004FF0090142F6FD52C0F200029047F1
:1033800008BD4FF0000042F6D162C0F20002904743
:1033900008BD4FF0010042F6D161C0F2000188473C
:1033A00008BD4FF0020042F6D163C0F20003984717
:1033B0004FF00000C4F20E00016C41F055034FF0D5
:1033C0004002CAF600228265036408BD4FF0030084
:1033D00042F6D162C0F2000290474FF00000C4F202
:1033E0000E00036C43F055014FF04002CAF6002274
:1033F0008265016408BD4FF0040042F6D163C0F25B
:103400000003984708BD4FF0050042F6D163C0F2B3
:103410000003984708BD4FF0060042F6D161C0F2A4
:103420000001884708BD4FF0070042F6D162C0F2A4
:103430000002904708BD4FF0080042F6D163C0F289
:10344000000398474FF00000C4F20E00026C42F0F7
:1034500004014FF04003CAF600238365016408BDF0
:103460004FF0090042F6D163C0F2000398474FF0D5
:103470000000C4F20E00016C41F004034FF0400262
:10348000CAF600228265036408BD4FF00A0042F6C6
:10349000D163C0F2000398474FF00000C4F20E0061
:1034A000026C42F004014FF04003CAF6002383652A
:1034B000016408BD4FF00B0042F6D161C0F200017B
:1034C00088474FF00000C4F20E00036C43F0040183
:1034D0004FF04002CAF600228265016408BD4FF039
:1034E0000C0042F6D162C0F20002904708BD4FF0D6
:1034F0000D0042F6D163C0F20003984708BD4FF0BB
:103500000E0042F6D162C0F20002904708BD4FF0B3
:103510000F0042F6D162C0F20002904708BD4FF0A2
:10352000100042F6D161C0F20001884708BD4FF09B
:10353000110042F6D161C0F20001884708BD4FF08A
:10354000120042F6D163C0F20003984708BD4FF065
:10355000130042F6D162C0F20002904708BD4FF05E
:10356000150042F6D161C0F20001884708BD4FF056
:10357000160042F6D163C0F20003984708BD4FF031
:10358000170042F6D162C0F20002904708BD4FF02A
:103590000100014642F6FD53C0F2000398474FF088
:1035A000000042F69171C0F20001884708BD4FF05B
:1035B00001004FF0020142F6FD53C0F200039847AC
:1035C0004FF0010042F69172C0F20002904708BD30
:1035D0004FF0020042F69171C0F20001884708BD29
:1035E0004FF001004FF0000142F6FD53C0F200031E
:1035F00098474FF0030042F69172C0F200029047E4
:1036000008BD4FF001004FF0040142F6FD52C0F238
:10361000000290474FF0040042F69171C0F20001A1
:10362000884708BD4FF001004FF0030142F6FD53FB
:10363000C0F2000398474FF0050042F69172C0F2C5
:103640000002904708BD4FF0060042F69171C0F2AB
:103650000001884708BD4FF004004FF0000142F61A
:10366000FD53C0F20003984708BD4FF004004FF02F
:10367000010142F6FD53C0F20003984708BD4FF028
:1036800004004FF0020142F6FD53C0F200039847D8
:1036900008BD4FF004004FF0030142F6FD52C0F2A6
:1036A0000002904708BD4FF00400014642F6FD536A
:1036B000C0F20003984708BD4FF005004FF000012D
:1036C00042F6FD52C0F20002904708BD4FF00500DF
:1036D0004FF0010142F6FD53C0F20003984708BDC8
:1036E0004FF005004FF0020142F6FD52C0F2000219
:1036F000904708BD4FF005004FF0030142F6FD531F
:10370000C0F20003984708BD4FF005004FF00401D8
:1037100042F6FD52C0F20002904708BD4FF005008E
:10372000014642F6FD53C0F20003984708BD00BFB2
:1037300008B54FF40043C4F20703984200F0318209
:103740004FF40041C4F20701884200F2BB804FF4FD
:103750000042C4F20202904200F0CB814FF40043D9
:10376000C4F20203984251D84FF40041C4F201015F
:10377000884200F096814FF40042C4F20102904268
:1037800020D84FF40043C4F20003984200F0718146
:103790004FF40041C4F20001884204D8B0F1402F38
:1037A00040F0F3825DE14FF00003C4F20103984260
:1037B00000F067814FF48041C4F20101884240F07B
:1037C000E48266E14FF44042C4F20102904200F00C
:1037D00078814FF44043C4F20103984207D84FF474
:1037E0000441C4F20101884240F0CF8261E14FF40C
:1037F0004443C4F20103984200F06B814FF48041CE
:10380000C4F20201884240F0C0826AE14FF0000336
:10381000C4F20403984200F094814FF00001C4F216
:103820000401884223D84FF00002C4F20302904200
:1038300000F06F814FF00003C4F20303984207D8F1
:103840004FF44041C4F20201884240F09E8258E1A8
:103850004FF40043C4F20303984200F062814FF436
:103860004041C4F20301884240F08F8261E14FF48D
:103870000042C4F20602904200F07B814FF4004304
:10388000C4F2060398420ED84FF00001C4F20601BC
:10389000884200F05E814FF48042C4F206029042FA
:1038A00040F073825DE14FF44042C4F20602904260
:1038B00000F067814FF00003C4F20703984240F024
:1038C000648266E14FF00003C4F20E03984200F0F8
:1038D000DC814FF00001C4F20E0188425BD84FF446
:1038E0008052C4F20A02904200F08C814FF480535F
:1038F000C4F20A03984223D84FF00001C4F2080131
:10390000884200F05E814FF00002C4F2080290424B
:1039100007D84FF44043C4F20703984240F0358281
:1039200047E14FF00002C4F20A02904200F05181D8
:103930004FF48063C4F20A03984240F0268250E1BB
:103940004FF4A041C4F20A01884200F085814FF48F
:10395000A043C4F20A0398420ED84FF40052C4F2B6
:103960000A02904200F056814FF48041C4F20A01ED
:10397000884240F00A825EE14FF4C042C4F20A027B
:10398000904200F07A814FF00003C4F20B0398429A
:1039900040F0FB815BE04FF00003C4F20F0398425C
:1039A00000F0A4814FF00002C4F20F02904223D82D
:1039B0004FF40061C4F20E01884200F07A814FF4A6
:1039C0000063C4F20E03984207D84FF48062C4F239
:1039D0000E02904240F0D98161E14FF44061C4F29F
:1039E0000E01884200F06F814FF48052C4F20E0243
:1039F000904240F0CA8170E14FF44061C4F20F017F
:103A0000884200F091814FF44062C4F20F0290426C
:103A10000ED84FF48063C4F20F03984200F0708117
:103A20004FF40061C4F20F01884240F0AE8171E1B1
:103A30004FF48051C4F20F01884200F07F814FF4AF
:103A4000A052C4F20F02904240F09F8180E14FF0FB
:103A500001004FF0090142F66562C0F20002904792
:103A60007EE14FF0000042F63172C0F20002904752
:103A700076E14FF0010042F63171C0F20001884753
:103A80006EE14FF0020042F63173C0F20003984736
:103A900066E14FF0030042F63172C0F20002904737
:103AA0005EE14FF0040042F63172C0F2000290472E
:103AB00056E14FF0050042F63172C0F20002904725
:103AC0004EE14FF0060042F63171C0F20001884726
:103AD00046E14FF0070042F63173C0F20003984709
:103AE0003EE14FF0080042F63172C0F2000290470A
:103AF00036E14FF0090042F63172C0F20002904701
:103B00002EE14FF00A0042F63172C0F200029047F7
:103B100026E14FF00B0042F63171C0F200018847F8
:103B20001EE14FF00C0042F63173C0F200039847DB
:103B300016E14FF00D0042F63172C0F200029047DC
:103B40000EE14FF00E0042F63171C0F200018847DD
:103B500006E14FF00F0042F63171C0F200018847D4
:103B6000FEE04FF0100042F63173C0F200039847B8
:103B7000F6E04FF0110042F63173C0F200039847AF
:103B8000EEE04FF0120042F63172C0F200029047B0
:103B9000E6E04FF0130042F63171C0F200018847B1
:103BA000DEE04FF0150042F63171C0F200018847A7
:103BB000D6E04FF0160042F63171C0F2000188479E
:103BC000CEE04FF0170042F63172C0F2000290478B
:103BD000C6E04FF0000042F6F173C0F200039847D0
:103BE000BEE04FF001004FF0020142F66562C0F204
:103BF000000290474FF0010042F6F171C0F200015F
:103C00008847ADE04FF0020042F6F171C0F20001CA
:103C10008847A5E04FF001004FF0000142F66563D0
:103C2000C0F2000398474FF0030042F6F171C0F272
:103C30000001884794E04FF001004FF0040142F684
:103C40006563C0F2000398474FF0040042F6F1723A
:103C5000C0F20002904783E04FF001004FF00301F3
:103C600042F66563C0F2000398474FF0050042F644
:103C7000F172C0F20002904772E04FF0060042F687
:103C8000F171C0F2000188476AE04FF004004FF084
:103C9000000142F66563C0F20003984760E04FF010
:103CA00004004FF0010142F66563C0F2000398473B
:103CB00056E04FF004004FF0020142F66563C0F297
:103CC000000398474CE04FF004004FF0030142F628
:103CD0006562C0F20002904742E04FF004000146E6
:103CE00042F66563C0F20003984739E04FF00500E3
:103CF0004FF0000142F66562C0F2000290472FE0EB
:103D00004FF005004FF0010142F66563C0F2000379
:103D1000984725E04FF005004FF0020142F665623A
:103D2000C0F2000290471BE04FF005004FF0030186
:103D300042F66563C0F20003984711E04FF00500BA
:103D40004FF0040142F66562C0F20002904707E0BE
:103D50004FF00500014642F66563C0F20003984744
:103D60004FF00000C4F20E00826A12F00B0F0CD16B
:103D70004FF00003C4F20E03196C21F07F004FF0E6
:103D80004002CAF600229A65186408BDEFF310825B
:103D900072B6BFF35F8F40F2D403C2F200034FF05C
:103DA000000119700B46C4F20E034FF02A419965C9
:103DB00018604AB940F2D400C2F200004FF001028C
:103DC0000270BFF35F8F62B6704700BF00B583B06B
:103DD0004FF0050042F69173C0F2000398474FF090
:103DE00001004FF0030142F6FD52C0F2000290477D
:103DF0004FF40060C4F20E00416911F0400F2AD167
:103E00004FF40063C4F20E035A6912F0010F0CD193
:103E100042F60550C0F2000080474FF40061C4F242
:103E20000E014B6913F0010FFBD04FF48872C3F6FB
:103E3000077202A840F8042D4FF0000142F69D538E
:103E4000C0F2000398474FF40060C4F20E004169CD
:103E500011F0400FFBD04FF40063C4F20E0341F2A7
:103E60000102C3F8902003B000BD00BF30B583B09D
:103E70004FF48064C4F20A04204643F25103C0F2B6
:103E8000000398474FF00100A0604FF48062C4F235
:103E90000A02D16811F0010FFBD04FF40065C4F2A3
:103EA0000E056C6914F0400F2AD14FF40063C4F280
:103EB0000E03586910F0010F0CD142F60552C0F202
:103EC000000290474FF40061C4F20E014D6915F0F5
:103ED000010FFBD04FF48874C3F6077402A840F8B2
:103EE000044D4FF0000142F69D53C0F20003984785
:103EF0004FF40060C4F20E00426912F0400FFBD094
:103F00004FF4D840C0F2DC204FF000010A4644F2E2
:103F10007D35C0F20005A8474FF0020043F68D51F1
:103F2000C0F2000188474FF00000C4F20F004FF0CC
:103F300000014AF68012C0F2030244F23924C0F2B2
:103F40000004A0474FF00004C4F20F0444F2CD2552
:103F5000C0F200052046A84710F0010FFAD0EFF399
:103F6000108372B6BFF35F8F40F2D400C2F200003C
:103F70004FF0000202702BB94FF001030370BFF342
:103F80005F8F62B603B030BDF0B587B0684644F2CB
:103F9000A943C0F20003984704A84FF44061C4F25B
:103FA0000F016A4644F2C544C0F20004A04704A8C9
:103FB00044F29151C0F2000188474FF48050C4F29E
:103FC0000E0043F25102C0F2000290474FF001028E
:103FD0004FF00003144603E003F1010302F1010274
:103FE0004A2BF9D04E2BF7D0482BF5D0022BF3D02B
:103FF0004FEA531000F5001505F5E1664FEA462734
:1040000003F01F0104FA01F0B864C7F8640178678F
:10401000C7F88800C7F8C800C7F80801B861B862D7
:10402000B8635F2AD8D94FF4A053C4F20E034FF4FB
:1040300080645C64C3F868419C654FF008029A672D
:10404000C3F88820C3F8C820C3F808215A619A62CF
:104050009A639A604FF48052C4F20E024FF040010E
:104060009167C2F88810C2F8C810C2F808119161AF
:104070005162916391604FF480455D64C3F868516B
:104080009D654FF000769667C2F88860C2F8C860F8
:10409000C2F8086196619662966396604FF08067F9
:1040A0009767C2F88870C2F8C870C2F80871976143
:1040B0009762976397604FF49050C4F20E004FF0F0
:1040C00020058564C0F864514FF480775F64C3F8BD
:1040D00068715F654FF080049C64C3F864414FF4DD
:1040E00000669E67C3F88860C3F8C860C3F80861BB
:1040F0005E619E629E639E604FF480509867C3F835
:104100008800C3F8C800C3F8080158619862986332
:1041100098604FF004009867C3F88800C3F8C8009F
:10412000C3F8080198615862986398609467C2F870
:104130008840C2F8C840C2F8084154619462946350
:1041400094604FF010069E67C3F88860C3F8C8609B
:10415000C3F808619E619E629E639E609D67C3F87E
:104160008850C3F8C850C3F808519D619D629D6393
:104170009D609967C3F88810C3F8C810C3F8081188
:1041800099619962996399609067C2F88800C2F852
:10419000C800C2F8080150619062906390604FF0CF
:1041A00001059D67C3F88850C3F8C850C3F808518B
:1041B0009D619D629D639D604FF002059D67C3F800
:1041C0008850C3F8C850C3F808519D619D629D6333
:1041D0009D609867C3F88800C3F8C800C3F8080159
:1041E00098615862986398609467C2F88840C2F8F2
:1041F000C840C2F808415461946294639460916726
:10420000C2F88810C2F8C810C2F808115161916252
:10421000916391605F64C3F868719F659167C2F8AC
:104220008810C2F8C810C2F80811916191629163B8
:10423000916007B0F0BD00BF2DE9F843C46924F0D8
:10424000030545F00C03EFF3108672B6BFF35F8FE2
:104250004FF0000540F2D407C2F200073D704EF265
:104260001004CEF20004D4F808802768D4F8049033
:1042700062604FF00502226001F00301194340F231
:104280000103C2F2000398472560C4F80490C4F803
:10429000088027604EB940F2D401C2F200014FF00D
:1042A00001020A70BFF35F8F62B6BDE8F88300BFFA
:1042B000C16941F080714FF00003C4F20F034FF069
:1042C0001C02CAF600229A61C161704740697047BA
:1042D0004FF00003C4F20A03196821F040020028DD
:1042E00014BF4020002010434FF00003C4F20A0323
:1042F000186070474FF00003C4F20A03986800F09A
:104300000100704710B544F2F524C0F20004A04744
:104310000028FCD010BD00BF38B505460C4640F261
:10432000D803C2F20003186880474FF00001C4F2BE
:104330000A014A68002C07DB45F025454FEA0424B2
:1043400024F07F44254304E022F03F0343F025405E
:1043500005434FF00001C4F20A014D608A6802F083
:104360000C0040F2A873C2F20003186040F2D801BA
:10437000C2F200010A68904738BD00BF08B50029A5
:1043800056D14AF68003C0F21213984227D94FF44F
:10439000A243C0F22523984210D84FF0010044F206
:1043A000D123C0F2000398474FF011004FF0FF31C6
:1043B00044F21932C0F20002904708BD4FF00100EC
:1043C00044F2D121C0F2000188474FF010004FF0B5
:1043D000FF3144F21932C0F20002904708BDB2B179
:1043E0004FF4D851C0F2B701884210D84FF0010005
:1043F00044F2D121C0F2000188474FF011004FF084
:10440000FF3144F21932C0F20002904708BD4FF06C
:10441000000044F2D122C0F2000290474FF0110098
:104420004FF0FF3144F21933C0F20003984708BD42
:104430004AF68003C0F2121398428CBF012000207C
:1044400044F2D121C0F2000188474FF011004FF033
:10445000FF3144F21932C0F20002904708BD00BF9C
:1044600082B04FF44063C4F20F03196811F4003FA7
:104470000CBF40F2433140F672310191019A4FEA8C
:10448000D2030193019901F1FF3201920029F9D180
:1044900040F0AA414FF44063C4F20F03196040F0AA
:1044A0002A40186002B070474FF000030360436079
:1044B0004FF01002027243724FF001018172C1721B
:1044C0000373704738B50C461546016042600846D4
:1044D00043F25103C0F200039847206810F0080F20
:1044E00052D1216811F0010F0BD0226822F0010097
:1044F00044F26143C0F200039847206810F0010FB6
:10450000FBD1216811F4803F0BD0226822F4803067
:1045100044F26143C0F200039847206810F4803FE2
:10452000FBD169682A6841EA0203287A4FEA002130
:1045300001F4F85243EA02006B7A4FEA834101F436
:10454000F8021043AB7A002B14BF802100210843EE
:10455000ED7A002D14BF02220022104344F261457F
:10456000C0F20005A847206840F48030A8472368BF
:1045700013F4803FFBD0204643F23171C0F20001BA
:1045800088474FF0010038BD4FF0000038BD00BF34
:1045900010B50468206820F0010044F26143C0F2C5
:1045A00000039847216811F0010FFBD1204643F228
:1045B0003172C0F20002904710BD00BFFEE700BF9D
:1045C00038B540F20003C2F2000344F6C012C0F254
:1045D00000029A4203D039483949814204D3394B09
:1045E000394A9A4225D342E0384D394C631B23F0B7
:1045F00003054FF0000340F20002C2F2000244F64D
:10460000C011C0F2000105F10400C5F380045D583B
:104610009D5003F10403834246D1E0E75D589D506D
:1046200003F104035C589C5003F104038342F5D169
:10463000D5E7284D2849481B20F0030440F22053B9
:10464000C2F20003E2184FF00001501BA0F1040079
:10465000C0F3800445F8041F95421ED107E005F120
:104660000403696005F1080559609542F7D140F2ED
:104670000005C0F2000525F07F024FF46D41CEF237
:1046800000018A6044F6FD00C0F20000804742F657
:104690009544C0F20004A047FEE7002CDFD045F8A7
:1046A000041F9542DBD1E2E7002CB7D05C589C5048
:1046B00003F104038342B1D191E700BF100500204C
:1046C000000000203C0900202005002004000020FC
:1046D000130500201C0500203709002070B584B0A8
:1046E00041F25143C0F2000398474FF028008DF883
:1046F00004004FF000048DF805404FF001068DF8DE
:1047000006608DF807408DF808404FF003018DF8E2
:1047100009104FF010028DF80A204FF002058DF8B5
:104720000B504FF006038DF80C304FF01E008DF843
:104730000D0001A841F22951C0F20001884741F261
:104740009142C0F200029047204641F2B154C0F2BB
:104750000004A0473046A0472846A0474FF4A05386
:10476000C4F20E034FF48040586504B070BD00BF22
:1047700010B582B002464FF0010300934FF00200E3
:104780004FF024014FF0070341F21D64C0F2000412
:10479000A04702B010BD00BF40F63412C2F20002C2
:1047A0004FF00003137053709370D37013715371F3
:1047B0009371D37140F63010C2F2000003604FF0E5
:1047C0000100704738B540F69503C0F200039847E2
:1047D00030B340F63014C2F20004256840F6711080
:1047E000C0F20000804740F63412C2F20002505579
:1047F000236803F10103062B01DC236006E040F689
:104800003010C2F200004FF00002026040F6341097
:10481000C2F2000044F27173C0F20003984738BD41
:1048200044F69010C0F2000044F27171C0F2000131
:10483000884738BD2DE9F8439846234B1C68064647
:10484000D4F848010F46914618B904F5A670C4F88B
:10485000480141681F2916DD1C4818B94FF0FF3088
:10486000BDE8F8834FF4C870AFF300800028F5D09E
:10487000D4F84821002545600260C4F84801C0F81A
:104880008851C0F88C51B6B14468D0F88811012223
:1048900000EB840302FA04F21143022EC3F888905D
:1048A000C0F888111C46C3F8088104D1D0F88C31B7
:1048B0001A43C0F88C2141688B1C4A1C40F82370B5
:1048C00042600020BDE8F883944900000000000029
:1048D00070B5084B084CE01A841003EB84060025E1
:1048E000043D1CB172599047013CF9E7BDE87040A6
:1048F00000F05EB8BC490000C049000038B50E4D5C
:104900000E4BE81A85100024AC4205D00B4951F833
:10491000242090470134F7E700F040F80849094A9D
:10492000541AA5100024AC4205D0054B53F82400BE
:1049300080470134F7E738BDA8490000A8490000C6
:10494000A8490000B049000010B50023934203D0ED
:10495000CC5CC4540133F9E710BD8218034693427E
:1049600002D003F8011BFAE770470000024B13B1B5
:10497000024800F005B8704700000000D148000070
:104980000146002002460346FFF754BF4877340033
:1049900046000000E800002043000000F8B500BF1A
:1049A000F8BC08BC9E4670476D490000F901000044
:1049B000F8B500BFF8BC08BC9E467047D1010000A6
:1049C0004FF00003C4F20F034FF01C02CAF600229E
:1049D0009A61C1614FF00001C4F20F014EF2100262
:1049E000CEF200024869136803F4803310F001002E
:1049F00001D1002BF6D07047D90700004D0500000B
:104A0000450200004D020000F50400007D05000095
:104A100031020000550200004D02000000000000BD
:104A200078000020700000204C000020380000209A
:104A30008C000020680000201201000202000040EB
:104A4000EB03042400010000000100000902430000
:104A5000020100C032090400000102020100052425
:104A600000100104240202052406000105240103AC
:104A7000010705830340001009040100020A000039
:104A80000007058102400000070502024000000007
:104A900004030904010000000543000000000000B9
:104AA000E80000200000000000000000D403002007
:104AB0003C040020A40400200000000000000000CE
:104AC00000000000000000000000000000000000E6
:104AD00000000000000000000000000098490000F5
:104AE00000000000000000000000000000000000C6
:104AF00000000000000000000000000000000000B6
:104B000000000000000000000000000000000000A5
:104B10000000000000000000000000000000000095
:104B20000000000000000000000000000000000085
:104B30000000000000000000000000000000000075
:104B40000000000000000000000000000000000065
:104B500001000000000000000E33CDAB34126DE602
:104B6000ECDE05000B00000000000000000000006B
:104B70000000000000000000000000000000000035
:104B80000000000000000000000000000000000025
:104B90000000000000000000000000000000000015
:104BA0000000000000000000000000000000000005
:04000003000045C1F3
:00000001FF
